:100000000C9445010C9476010C9476010C947601C5
:100010000C9476010C9476010C9476010C94760184
:100020000C9476010C9476010C9476010C94760174
:100030000C9476010C9476010C9476010C94760164
:100040000C9476010C9421040C9476010C947601A6
:100050000C9476010C9476010C9476010C94770341
:100060000C9476010C94EB030C94C1030C94760170
:100070000C9476010C9476010C9476010C94760124
:100080000C9476010C9476010C9476010C94760114
:100090000C9476010C9476010C9476010C94760104
:1000A0000C9476010C9476010C9476010C947601F4
:1000B0000C9476010C9476010C9476010C947601E4
:1000C0000C9476010C9476010C9476010C947601D4
:1000D0000C9476010C9476010C9476010C947601C4
:1000E0000C94760193019601850189018F01CD0160
:1000F0009A019E01A401A801AC01B201B601BA01A6
:10010000CD01C001C401C8010C94BA010C94FE05D4
:100110000C944B020C949E010C94AC010C94B6010F
:100120000C949A010C94C0010C94C8010C94C40165
:100130000C9485010C94FE010C9489010C94C90265
:100140000C9429020C943D020C94B2010C9482028E
:100150000C94A4010C94CD010C9496010C94A8016C
:100160000C948F010C9493010000200023002600C2
:1001700029002C002F0032000001000003010601BD
:10018000090100002100240027002A002D00300072
:10019000330001010000040107010A0100002200F0
:1001A000250028002B002E00310034000201000041
:1001B000050108010B0105050505070508080808E4
:1001C000020202020A0A08080404040401010101EF
:1001D00001010101030303030303030304070707EA
:1001E0000C0C0C0C0C0C0C0C02020202060606068F
:1001F000060606060B0B0B0B0B0B0B0B010210205C
:10020000200808102040102040800201020108044C
:1002100002010102040810204080804020100804E0
:100220000201800402018040201008040201080439
:10023000020101020408102040800102040810207D
:10024000408000000A0B02090C0D0E080703040190
:10025000000000000000000000000000000000009E
:10026000000000000000000000000000000012116B
:10027000100000000000000000000000000000006E
:100280000000000000000000FE0511241FBECFEF9B
:10029000D1E2DEBFCDBF00E00CBF12E0A0E0B2E0D3
:1002A000E6E2FDE000E00BBF02C007900D92A8322D
:1002B000B107D9F722E0A8E2B2E001C01D92A33E47
:1002C000B207E1F711E0C5E4D1E000E006C02197F4
:1002D0000109802FFE010E944D06C434D10780E041
:1002E0000807A9F70E948C040C9491060C94000056
:1002F00090E0FC013197E231F10508F04EC088270B
:10030000EE58FF4F8F4F0C944D06809180008F77F1
:1003100003C0809180008F7D80938000089580913C
:100320008000877FF9CF84B58F7702C084B58F7D39
:1003300084BD08958091B0008F7703C08091B00094
:100340008F7D8093B0000895809190008F7707C0D3
:10035000809190008F7D03C080919000877F809373
:10036000900008958091A0008F7707C08091A00031
:100370008F7D03C08091A000877F8093A0000895A7
:10038000809120018F7707C0809120018F7D03C06D
:1003900080912001877F8093200108951F93CF9340
:1003A000DF93282F30E0F901EE5BFD4F8491F901D6
:1003B000E450FE4FD491F901EA54FE4FC491CC238E
:1003C000C9F0162F81110E947801EC2FF0E0EE0F9A
:1003D000FF1FE456FE4FA591B4918FB7F894111109
:1003E00005C09C91ED2FE095E92302C0EC91ED2B27
:1003F000EC938FBFDF91CF911F910895CF92DF9241
:10040000EF92FF920F931F93CF93DF936C017A01CA
:100410008B01C0E0D0E0CE15DF0589F0D8016D91E9
:100420008D01D601ED91FC910190F081E02DC60186
:100430001995892B11F47E0102C02196ECCFC701DA
:10044000DF91CF911F910F91FF90EF90DF90CF90B0
:100450000895FC01918D828D981761F0828DDF01E6
:10046000A80FB11D5D968C91928D9F5F9F73928FA7
:1004700090E008958FEF9FEF0895FC01918D828D9C
:10048000981731F0828DE80FF11D858D90E0089569
:100490008FEF9FEF0895FC01918D228D892F90E0C1
:1004A000805C9F4F821B91098F739927089586E482
:1004B00092E00E944B0221E0892B09F420E0822F78
:1004C0000895FC01848DDF01A80FB11DA35ABF4F11
:1004D0002C91848D90E001968F739927848FA68943
:1004E000B7892C93A089B1898C9180648C93938D6A
:1004F000848D981306C00288F389E02D80818F7D5A
:1005000080830895EF92FF920F931F93CF93DF9311
:10051000EC0181E0888F9B8D8C8D981305C0E88954
:10052000F989808185FD24C0F62E0B8D10E00F5FC8
:100530001F4F0F731127E02E8C8DE8120CC00FB6E1
:1005400007FCFACFE889F989808185FFF5CFCE01D4
:100550000E946102F1CF8B8DFE01E80FF11DE35A7D
:10056000FF4FF0820B8FEA89FB898081806207C090
:10057000EE89FF896083E889F989808180648083BE
:1005800081E090E0DF91CF911F910F91FF90EF906C
:100590000895CF93DF93EC01888D8823C9F0EA8911
:1005A000FB89808185FD05C0A889B9898C9186FD6C
:1005B0000FC00FB607FCF5CF808185FFF2CFA88969
:1005C000B9898C9185FFEDCFCE010E946102E7CF02
:1005D000DF91CF91089580E090E0892B21F00E9477
:1005E0005702811125C080E090E0892B41F080E026
:1005F00090E0892B21F00E94000081111CC080E056
:1006000090E0892B41F080E090E0892B21F00E945E
:100610000000811113C080E090E0892BA1F080E000
:1006200090E0892B81F00E94000081110AC008959A
:100630000E940000D8CF0E940000E1CF0E9400007D
:10064000EACF0C94000008958F929F92AF92BF92D0
:100650000F931F93CF93DF93CDB7DEB7A1970FB65C
:10066000F894DEBF0FBECDBF19A2423008F44AE0B5
:100670008E010F5D1F4F842E912CA12CB12CA50152
:1006800094010E942B06E62FB901CA0101501109FD
:10069000EA3014F4E05D01C0E95CD801EC93232B4F
:1006A000242B252B61F70115110571F0F80101903C
:1006B0000020E9F73197AF01401B510BB80186E4E8
:1006C00092E00E94FE0102C080E090E0A1960FB689
:1006D000F894DEBF0FBECDBFDF91CF911F910F9178
:1006E000BF90AF909F908F9008950E9455061F92E3
:1006F0000F920FB60F9211242F933F938F939F93D6
:10070000AF93BF938091420290914302A091440223
:10071000B09145023091410223E0230F2D3720F4A0
:100720000196A11DB11D05C026E8230F0296A11D4B
:10073000B11D209341028093420290934302A09303
:100740004402B093450280913D0290913E02A091F7
:100750003F02B09140020196A11DB11D80933D0260
:1007600090933E02A0933F02B0934002BF91AF919D
:100770009F918F913F912F910F900FBE0F901F90DF
:1007800018951F920F920FB60F9211240BB60F926D
:100790002F933F934F935F936F937F938F939F9389
:1007A000AF93BF93EF93FF9386E492E00E946102C0
:1007B000FF91EF91BF91AF919F918F917F916F9139
:1007C0005F914F913F912F910F900BBE0F900FBEF5
:1007D0000F901F9018951F920F920FB60F92112431
:1007E0000BB60F922F938F939F93EF93FF93E0910C
:1007F0005602F09157028081E0915C02F0915D0217
:1008000082FD12C0908180915F028F5F8F73209173
:100810006002821751F0E0915F02F0E0EA5BFD4F69
:10082000958F80935F0201C08081FF91EF919F912E
:100830008F912F910F900BBE0F900FBE0F901F90B6
:1008400018951F920F920FB60F9211240BB60F92AC
:100850000F931F932F933F934F935F936F937F93C8
:100860008F939F93AF93BF93CF93DF93EF93FF93B8
:10087000C1E1D2E0299139913327F901EE5BFD4FB7
:100880008491F901E450FE4F0491F901EA54FE4FBE
:1008900014911123A1F081110E947801E12FF0E061
:1008A000EE0FFF1FE859FE4FA591B491EC91E023A4
:1008B00091E080E009F490E0692F782F02C060E0B9
:1008C00070E0072E000C880B990B4AE00E9424036D
:1008D00082E0C731D80709F0CDCF42E050E064E2B2
:1008E00072E086E492E00E94FE01FF91EF91DF91B9
:1008F000CF91BF91AF919F918F917F916F915F91B8
:100900004F913F912F911F910F910F900BBE0F9020
:100910000FBE0F901F901895CF93DF93CDB7DEB722
:100920002C970FB6F894DEBF0FBECDBF789484B578
:10093000826084BD84B5816084BD85B5826085BDDB
:1009400085B5816085BD80916E00816080936E0069
:10095000109281008091810082608093810080915B
:10096000810081608093810080918000816080930C
:1009700080008091B10084608093B1008091B000CC
:1009800081608093B000809191008260809391009B
:1009900080919100816080939100809190008160AE
:1009A000809390008091A10082608093A10080914B
:1009B000A10081608093A1008091A000816080935C
:1009C000A00080912101826080932101809121010A
:1009D00081608093210180912001816080932001BA
:1009E00080917A00846080937A0080917A0082609E
:1009F00080937A0080917A00816080937A00809160
:100A00007A00806880937A001092C100E0915602CB
:100A1000F091570282E08083E0915202F0915302FC
:100A20001082E0915402F091550280E1808310928F
:100A30005E02E0915A02F0915B0286E08083E091D1
:100A40005802F0915902808180618083E0915802C0
:100A5000F0915902808188608083E0915802F09182
:100A60005902808180688083E0915802F091590298
:100A700080818F7D808301E112E0D8018D919C916E
:100A800011979927FC01E450FE4F4491FC01EA5470
:100A9000FE4F84918823A1F090E0880F991FFC01FC
:100AA000EE57FE4F25913491FC01E456FE4F85919F
:100AB00094918FB7F894F9019081942B90838FBF14
:100AC0000E5F1F4F60E08C910E94CE01F2E0073173
:100AD0001F0799F6F894109280001092810081E12E
:100AE0009AE79093890080938800809181008860C4
:100AF000809381008091810084608093810078944C
:100B000080916F00826080936F001FEF86E492E017
:100B10000E944B02181619060CF06DC086E492E094
:100B20000E94290280930002E0913C02843219F075
:100B3000E33108F456C0F0E0E85DFD4F10821093F9
:100B40003C0268E272E0CE0101960E946306AE01AB
:100B5000455F5F4F67E172E0CE0101960E946A0631
:100B600069E172E0CE0101960E945A06892B69F470
:100B70006CE172E08B859C850E945A06892B11F4EA
:100B800060E001C061E085E029C06EE172E0CE0165
:100B900001960E945A06892B69F46CE172E08B85FC
:100BA0009C850E945A06892B11F460E001C061E027
:100BB00086E014C061E272E0CE0101960E945A06FE
:100BC000892B99F46CE172E08B859C850E945A0612
:100BD000892B11F460E001C061E087E00E94CE0142
:100BE00004C0F0E0E85DFD4F808380913C028F5FA0
:100BF00080933C028BCF0E94EB0288CFE6E4F2E0C8
:100C00001382128288EE93E0A0E0B0E084839583A3
:100C1000A683B78385E092E09183808385EC90E0A2
:100C20009587848784EC90E09787868780EC90E0B6
:100C3000918B808B81EC90E0938B828B82EC90E0A7
:100C4000958B848B86EC90E0978B868B118E128E21
:100C5000138E148E0895A1E21A2EAA1BBB1BFD0150
:100C60000DC0AA1FBB1FEE1FFF1FA217B307E4078B
:100C7000F50720F0A21BB30BE40BF50B661F771FE3
:100C8000881F991F1A9469F76095709580959095C3
:100C90009B01AC01BD01CF010895EE0FFF1F881F1E
:100CA0008BBF0790F691E02D199481E090E0F894C5
:100CB0000C949106FB01DC018D91019080190110CB
:100CC000D9F3990B0895FB01DC0101900D920020EE
:100CD000E1F70895FA01A191B081009719F41097F6
:100CE000E1F0CD01DC01CD010D90002011F4C00137
:100CF00013C0FB012191222319F02015D9F7F3CF5E
:100D0000FB012191201519F41E92119606C0222391
:100D1000C1F70D900020A1F7D001FA01A193B08393
:060D20000895F894FFCFD6
:100D2600FF000000008202FE014B0229023D02C9BB
:100D3600020500060007003A006331003000633206
:080D4600006333000D0A0000F8
:00000001FF
